:0600000002120B02006B6E
:03000B0002006B85
:0300130002006B7D
:03001B0002006B75
:0300230002006B6D
:03002B0002006B65
:0300330002006B5D
:03003B0002006B55
:0300430002006B4D
:03004B0002006B45
:0300530002006B3D
:03005B0002006B35
:0300630002006B2D
:01006B003262
:0900800002006B0002006B00029B
:08008900006B0002006B000295
:08009100006B0002006B00028D
:08009900006B0002006B000285
:0800A100006B0002006B00027D
:0800A900006B0002006B000275
:0700B100006B0002006B0070
:0901000002006B0002006B00021A
:08010900006B0002006B000214
:08011100006B0002006B00020C
:08011900006B0002006B000204
:08012100006B0002006B0002FC
:08012900006B0002006B0002F4
:08013100006B0002006B0002EC
:08013900006B0002006B0002E4
:08014100006B0002006B0002DC
:08014900006B0002006B0002D4
:08015100006B0002006B0002CC
:08015900006B0002006B0002C4
:08016100006B0002006B0002BC
:08016900006B0002006B0002B4
:08017100006B0002006B0002AC
:07017900006B0002006B00A7
:0312370002123F61
:07120B00750C017508007568
:061212000900750A0075D9
:021218000B00C9
:0312520002123A4B
:05123A001204CF80FE4C
:0501800090E68BE4F0A5
:0901850090E6A0E0FA20E1F82266
:0A018E0090E6B8E0FABAC002800360
:03019800020263FD
:0A019B0090E6B9E0FABA8002800E87
:0501A500BA8102804751
:0601AA00BA820302021FED
:0301B00002025FE9
:0C01B30090E6BCE0FA6005BA013080174D
:0A01BF0090E740E50BF0750B00908F
:0D01C900E68AE4F090E68B7401F002038DED
:0A01D60090E740E50AF0750A00907A
:0D01E000E68AE4F090E68B7401F002038DD6
:0401ED0075820022F5
:0A01F10090E6BAE0FA751B40751C99
:0C01FB00E790E6BEE0F51D8A82120A8142
:07020700E5827003F582227D
:0E020E0090E68AE4F090E6BEE0FA90E68BF00F
:03021C0002038D4D
:0C021F0090E6BBE0FA90E6BAE0F5229011
:0A022B00E6BDE0F52390E6BCE0F527
:05023500247525407551
:0A023A0026E790E6BEE0F5278A8271
:0A02440012084CE5827003F58222D7
:0E024E0090E68AE4F090E6BEE0FA90E68BF0CF
:03025C0002038D0D
:04025F007582002282
:0A02630090E6B8E0FABA400280030A
:03026D0002038900
:0C02700090E6B9E0FA24F4500302038584
:07027C00EA2A2A90028373B5
:070283000203850202A7023D
:06028A0002CF0203850211
:0602900002F90203050261
:06029600031102038502C2
:06029C00033302035302CC
:0502A200031D0203280A
:0C02A70090E6BCE0FA6005BA011A800C79
:0C02B30090E6BAE0F5821205BE02038D51
:0C02BF0090E6BAE0F5821205CB02038D38
:0402CB007582002216
:0C02CF0090E6BCE0FA600ABA0102800868
:0502DB00BA02178012B9
:0302E000020660B3
:0C02E30012018090E68BE0F51290E740DD
:0302EF000206CF35
:0302F2000206DF22
:0402F50075820022EC
:0C02F90090E6BAE0F58212074102038D86
:0C03050090E6BAE0F58212075C02038D5E
:0C03110090E6BAE0F58212077702038D37
:0B031D0090E6BAE0F5821207928065BE
:0B03280090E6BAE0F58212079C805AB4
:0C03330012018090E6BAE0FA751B4075DC
:0A033F001CE790E68BE0F51D8A82B2
:0A034900120B41E582703DF582229F
:0D03530012018090E6BBE0FA90E6BAE0F5FA
:0A0360002890E6BDE0F52990E6BC08
:07036A00E0F52A752B407538
:0A0371002CE790E68BE0F52D8A8260
:0A037B001208BAE582700BF5822229
:04038500758200225B
:040389007582002257
:04038D007582012252
:0D03910090E6C67481F090E6C7742DF090E0
:0E039E00E6C87426F090E6C9E4F090E6CA7452
:0E03AC0004F090E6CB7404F090E6CC7403F0FD
:0B03BA0090E6CD7402F090E60CE4F039
:0603C500300003120D3CA4
:0E03CB00E5BB30E7F5E58054C06016E58030F4
:0503D900E703750B01B4
:0803DE00E58030E603750A0119
:0603E60043B10853B1F71A
:0C03EC00E508602AE5AB20E12590E6F46E
:0D03F800E0FA30E01D90E6D07401F00090B6
:0E040500E6D1E4F00090E6C87421F00075BB6B
:020413000000E7
:05041500E5BB30E7FB30
:0C041A00E50960A790E6A5E0FA20E39F4A
:0E04260090E6F4E0FA30E19790E6D07401F031
:0E0434000090E6D1E4F00090E6C87426F000D7
:0404420075BB060080
:0D044600E5BB30E7FB0090E6487406F002CD
:0204530003C5DF
:0A045500C0E0D50C06750C3263A060
:01045F00405C
:05046000C2CFD0E03224
:040465007518007591
:03046900191875EA
:09046C001705751A017582501282
:0804750009EA901800E0FA907A
:0C047D00E00CF090E05AEAF074302A9095
:05048900E0CEF0751843
:03048E00017519DC
:05049100187517F87555
:0A0496001A087582501209EA7A0074
:0304A000BA080097
:0A04A3005029EA2401F582E4341820
:0904AD00F583E0FBBBFF027B308C
:0C04B6008A04E4CC25E0CC33FDEC242AC1
:0C04C200F582ED34E1F583EBF00A80D206
:0104CE00220B
:0804CF00751B00751C10E4F51B
:0B04D7001D90E1F075F000120BBA124E
:0E04E200051A1207A690E601E04404F07582A8
:0D04F000001205BE7582001205CBC2AF12CE
:0604FD0004651211221239
:050503000CA67A557BF7
:0C050800048A828B831211CAD2EAD2AF9F
:06051400120A5D020391D2
:0E051A0090E6007410F0758E0090E60174F209
:0E052800F00075803875B23B75A0C075B4CF79
:0E05360075B1F075B6F890E61074A0F0009064
:0E054400E61174E0F00090E61274A0F0009052
:0D055200E613E4F00090E61474E0F0009071
:0D055F00E615E4F00090E6047480F00090D2
:0E056C00E6047402F00090E6047406F00090BD
:0D057A00E604E4F00090E6187401F0009033
:0E058700E6187411F00090E61A7409F0009066
:0E059500E68AE4F00090E68DE4F00090E6D2F5
:0E05A3007401F00090E6E27402F00090E6248D
:0D05B1007402F00090E625E4F0000206510F
:0905BE00E582FA700443A040221A
:0405C70053A0BF225C
:0905CB00E582FA700443A08022CD
:0405D40053A07F228F
:0405D80063A04022BA
:0405DC0063A0802276
:0105E00022F8
:0105E10022F7
:0B05E200AA82901809E50EF0743F5546
:0605ED000DFBEAB4010061
:0905F300E433FA60047A0280028C
:0205FC007A047F
:0505FE008B288A29751D
:040603002A20752B09
:0306070009752C46
:08060A0018752D017582000234
:0206120008BA24
:0C061400AA82901809E50FF0743F5AF517
:05062000287529067594
:040625002A20752BE7
:0306290009752C24
:08062C0018752D017582000212
:0206340008BA02
:0A063600750F01758201120614759C
:090640000F0F75820812061475F3
:080649000F0075821402061473
:0D0651001205E012081353A0FE43A00102A1
:02065E0006365E
:0C06600053A0C17582281211E743A004CA
:09066C00E5A030E5FB75820122D6
:0E067500E5821392A1D2A3C2A31392A1D2A335
:0E068300C2A31392A1D2A3C2A31392A1D2A329
:0E069100C2A31392A1D2A3C2A31392A1D2A31B
:0E069F00C2A31392A1D2A3C2A31392A1D2A30D
:0306AD00C2A322C3
:0606B000AA82AB10AC11A0
:0E06B6008A051AED60128B828C83E0FDA3ABE7
:0A06C40082AC838D8212067580E877
:0106CE002209
:0706CF00858210858311856F
:0906D60012821206B075820122A5
:0A06DF00E5A0FA20E5047582002270
:0A06E900530210BA100475820122BA
:0406F30075820022EA
:07121A00751300751400902C
:09122100180AE4F090180BF0909B
:07122A00180CF090180DF004
:0A06F700AA82747F5AF528752901C4
:05070100752A2085159A
:030706002B85162A
:080709002C752D04758200021D
:0207110008BA24
:080713007A00E50860027A019A
:07071B00E50960034302023F
:07072200E51360034302042C
:07072900E514600343020820
:0707300090180DEAF07515A9
:030737000A75162A
:07073A00187582040206F7A6
:0C074100E5825401FA601053A0FE750818
:08074D00007509007513007529
:030755001400226B
:0407580043A0012297
:0C075C00AA825302018A08C0021207138F
:0C076800D002EA6009750B0043B1085391
:02077400B1F7DB
:010776002260
:0C077700AA825302018A09C00212071373
:0C078300D002EA6009750A0043B1085377
:02078F00B1F7C0
:010791002245
:0A079200AA8274015AF5130207133E
:0A079C00AA8274015AF51402071333
:0D07A60090E6F574FFF0009012F9E49390D6
:0D07B300E6F3F09012FAE49390E6C3F090A4
:0E07C00012FBE49390E6C1F09012FCE49390DB
:0E07CE00E6C2F09012FEE49390E6C0F07A00CE
:0307DC00BA8000E0
:0E07DF0050128A037CE4EA90125593FD8B823F
:0607ED008C83F00A80E994
:0607F30090E6C6E4F022CE
:0E12550001010101010101070000000000007D
:0E12630000000000000000000000000000007D
:0E1271000000003F013F0101010101072203BF
:0E127F00020202020200000101010101010051
:0E128D00000000000000003F0111013F0101C0
:0E129B0001070003000100000000060404002B
:0E12A90000000000002D002D0000003F013964
:0E12B700010101010107000302020202020010
:0E12C5000000000000000000002D00000000EE
:0212D300003FDA
:0E12D50000000000000000000000000000000B
:0E12E30000000000812D26000404030200819B
:0812F1002D210004040302009A
:0712F900A0000000EE4E0012
:0CE0000012010002FFFFFF40FEFF0200C3
:06E00C0000010102060103
:0AE012000A060002FFFFFF400100B4
:0EE01C0009023200030100C0000904000000E8
:0EE02A00FFFFFF030904010001FFFFFF0407D1
:0EE038000502020002000904020001FFFFFFC2
:08E04600050705860200020037
:0CE04E0012010002FFFFFF40FEFF020075
:06E05A00000101020001BB
:0AE060000A060002FFFFFF40010066
:0EE06A0009021200010100C0000904000000BC
:04E07800FFFFFF03A4
:01E07C00079C
:02E07D008CE035
:02E07F0092E02D
:02E08100BAE003
:02E08300D0E0EB
:02E08500F2E0C7
:02E087000EE1A8
:02E0890028E18C
:06E08C0006030000090478
:0EE09200280346007200650065002000530060
:0EE0A0006F006600740077006100720065007A
:0CE0AE00200046006F006C006B00730047
:0EE0BA00160355005300520050002000520083
:06E0C80065007600200057
:02E0CE003F0011
:0EE0D000220343006F006D006D0061006E00C2
:0EE0DE00640020002600200053007400610042
:06E0EC00740075007300D2
:0EE0F2001C035400720061006E0073006D008C
:0EE10000690074002000500061007400680087
:0EE10E001A0352006500630065006900760088
:0CE11C00650020005000610074006800E5
:02E128001203E0
:0EE12A0033002E003100340031003500390082
:02E138003300B2
:0E07F900AA8263020143803874075AC4035475
:0C080700F8628043B1F074F05A62B12234
:090813007582001207F9C281226E
:0A081C00AA827B00EA30E0027B01B3
:05082600EA30E1010BC6
:05082B00EA30E2010BC0
:05083000EA30E3010BBA
:05083500EA30E4010BB4
:05083A00EA30E5010BAE
:05083F00EA30E6010BA8
:05084400EA30E7010BA2
:030849008B82227D
:0C084C00AA82852382C00212081CAB8225
:0B085800D002EB24FE50047582002249
:0B086300852382C0021207F9D002E5D5
:08086E002430E704758200222A
:0C08760074605524FB6023BB2002800549
:05088200BB40178008D7
:08088700852282120913801181
:09088F008A8212091385228212EB
:0408980009138004BC
:04089C00758200223F
:0608A000E527600C85272E
:0508A6002F852582856D
:0508AB0026831209CBB9
:0A08B0007582001207F9758201221B
:0C08BA00AA82852982C0021207F9D00230
:0908C600E52A30E70475820022E6
:0C08CF007460552AFB6023BB20028005EA
:0508DB00BB401780087E
:0808E000852882120913801122
:0908E8008A82120913852882128C
:0408F1000913800463
:0408F50075820022E6
:0608F900E52D600C852DC9
:0508FF002E852B82850F
:050904002C83120964C0
:0A0909007582001207F975820122C1
:0E091300E58223FA139281D280C280EA23FA91
:0E092100139281D280C280EA23FA139281D20F
:0E092F0080C280EA23FA139281D280C280EA4D
:0E093D0023FA139281D280C280EA23FA139229
:0E094B0081D280C280EA23FA139281D280C248
:0B09590080EA23139281D280C280222A
:06096400AA82AB83AC2E59
:0E096A008C051CED601E8A828B83E0FDA3AA23
:0E09780082AB838D82C002C003C0041209133B
:08098600D004D003D00280DC94
:01098E002246
:0E098F00E4D280A28233C280D280A28233C220
:0E099D0080D280A28233C280D280A28233C276
:0E09AB0080D280A28233C280D280A28233C268
:0E09B90080D280A28233C280D280A28233C25A
:0409C70080F5822213
:0609CB00AA82AB83AC2FF1
:0E09D1008C051CED601212098FAD828A828B9C
:0A09DF0083EDF0A3AA82AB8380E849
:0109E90022EB
:0909EA00AA8290180EE517F075C1
:0309F3001B0E7563
:0309F6001C187555
:0C09F9001D018A82C002120B41E582D071
:060A0500027003F58222DD
:040A0B0085181B85AA
:030A0F00191C852A
:050A12001A1D8A82029A
:020A17000A8152
:080A1900780FE84400600C793D
:0C0A210001901800E4F0A3D8FCD9FAD032
:0E0A2D0083D082F6D8FDC082C083758200227D
:080A3B0090E6A0E04401F02266
:0E0A4300AA8274805AC423541FFB740F5A9069
:0C0A5100E6834BF090E683E04420F022A6
:0E0A5D0090E680E0440AF09000FA1211FA9040
:0E0A6B00E65D74FFF090E65F74FFF05391EFCC
:080A790090E680E054F7F02242
:06124C00E478FFF6D8FD76
:0A0A8100AA82E51D700475820122AF
:0E0A8B0090E678E0FB20E6F890E6787480F0C4
:0A0A9900EA2AFA90E67974014AF0A7
:0E0AA30090E678E0FA30E0F890E678E0FA307D
:050AB100E203020B3618
:0B0AB60090E678E0FA20E103020B3626
:0C0AC1007401B51D0890E678E0FA4420AE
:010ACD00F038
:090ACE0090E679E0F51EAA1BABCD
:030AD7001CAC1D37
:040ADA001CEC603080
:0E0ADE0090E678E0FD30E0F890E678E0FD204C
:0D0AEC00E248BC010890E678E0FD4420F0EF
:0E0AF90090E679E0FD8A828B83F0A3AA82AB9F
:070B0700838A1B8B1C80CCCC
:0E0B0E0090E678E0FA30E0F890E678E0FA2021
:0C0B1C00E21890E678E04440F0AA1BAB21
:0C0B28001C90E679E08A828B83F07582D5
:020B340001229C
:0B0B360090E678E04440F07582002259
:020B4100AA8286
:0E0B430090E678E0FB20E6F890E6787480F00B
:070B5100EA2AFA90E679F0B0
:0E0B580090E678E0FA30E0F890E678E0FA20D7
:0C0B6600E24790E678E0FA30E13FAA1B7D
:040B7200AB1CAC1DEF
:0E0B7600EC602B8A828B83E0FDA3AA82AB8306
:060B840090E679EDF01C83
:0E0B8A0090E678E0FD30E0F890E678E0FD209F
:0C0B9800E21590E678E0FD20E1D4800B2F
:0B0BA40090E678E04440F075820122EA
:0B0BAF0090E678E04440F075820022E0
:0A0BBA00AC82AD83AE1CAF1DBE007F
:050BC40004EF600C1FAE
:030BC9000FE51B1A
:080BCC00121004A3DEFADFF8A9
:050BD4008C828D8322DC
:061231007530007531006C
:0A0BD90090E680E0FA30E71975326B
:030BE30000753367
:030BE600E0753483
:030BE9001275354D
:030BEC00E075367B
:030BEF001C75373B
:030BF200E0753873
:030BF5006A7539E5
:020BF800E022F9
:040BFA0075324E758D
:030BFE0033E0756C
:030C0100346075E7
:030C040035E07563
:030C0700366A75D5
:030C0A0037E0755B
:030C0D00381C751B
:030C100039E022A6
:090C13005391EF75A100D20032EB
:0C0C1C00C021C0E0C0F0C082C083C00254
:0E0C2800C003C004C005C006C007C000C00164
:0E0C3600C0D075D0005391EF75A100120BD9FC
:0E0C4400D0D0D001D000D007D006D005D0040B
:0D0C5200D003D002D083D082D0F0D0E0D00B
:020C5F00213240
:0C0C6100C021C0E0C0F0C082C083C0020F
:0E0C6D00C003C004C005C006C007C000C0011F
:0E0C7B00C0D075D0005391EF75A100120BD9B7
:0E0C8900D0D0D001D000D007D006D005D004C6
:0D0C9700D003D002D083D082D0F0D0E0D0C6
:020CA4002132FB
:050CA600120BD9751BC3
:030CAB0013751CA2
:080CAE000C7582001210807524
:030CB6001B1C758F
:060CB9001C0C75821012F4
:040CBF001080751B11
:030CC30061751C3C
:0C0CC6000C75821412108090E65C7431F2
:020CD200F0220E
:0D0CD400E582547FFA24F750047582002257
:070CE100BA01047582012233
:080CE800530201E4BA0001040B
:030CF000F5822268
:0E0CF300AA82BA010C90E6A1E0FB7C008B8285
:030D01008C8322BE
:0E0D0400BA810C90E6A2E0FB7C008B828C830F
:010D120022BE
:0E0D130053027FEA700C90E6A0E0FB7C008BA0
:040D2100828C83221B
:0E0D250090E6A3E0FB7C00EAC313FA7D00EA2F
:090D33002BFBED3C8B82F58322C1
:0C0D3C00C20090E6B8E0FA530260BA0072
:030D4800028028FE
:050D4B00BA2002800D3A
:050D5000BA4002800E14
:050D5500BA60028003FA
:030D5A00020FFC89
:060D5D00120A3B020FFC2C
:0A0D630012018EE5826003020FFC0E
:060D6D00120A3B020FFC1C
:0D0D730090E6B8E0FA530280BA80028003D7
:030D8000020EFD63
:0B0D830090E6B9E0FABA0003020E741B
:050D8E00BA06028035E9
:050D9300BA080280080F
:050D9800BA0A028017F9
:030D9D00020EF74C
:0C0DA00090E740E530F090E68AE4F09027
:080DAC00E68B7401F0020FFC5C
:0C0DB40090E740E531F090E68AE4F09012
:080DC000E68B7401F0020FFC48
:0A0DC80090E6BBE0FABA01028017C2
:050DD200BA02028038A6
:050DD700BA030280597F
:050DDC00BA0602801BB5
:050DE100BA0702803C8E
:030DE600020E6E8C
:0A0DE900AA32AB3390E6B3EBF07BC7
:090DF3000090E6B4EAF0020FFCE6
:0A0DFC00AA34AB3590E6B3EBF07BB0
:090E06000090E6B4EAF0020FFCD2
:0A0E0F00AA36AB3790E6B3EBF07B98
:090E19000090E6B4EAF0020FFCBF
:0A0E2200AA38AB3990E6B3EBF07B81
:090E2C000090E6B4EAF0020FFCAC
:0E0E350090E6BAE0FA90E07CE0FBC3EA9B4056
:070E430006120A3B020FFC3E
:0C0E4A0090E6BAE075F002A4247DF58269
:0B0E560074E035F0F583E0FAA3E090B3
:0D0E6100E6B3F07B0090E6B4EAF0020FFC6F
:060E6E00120A3B020FFC1A
:0D0E740090E6B8E0FA53021FBA0002800AAF
:050E8100BA0102801D12
:050E8600BA0268802E95
:0E0E8B0090E7407401F090E741E4F090E68AB1
:0A0E9900F090E68B7402F0020FFCEB
:0E0EA30090E740E4F090E741F090E68AF0908E
:080EB100E68B7402F0020FFC55
:0E0EB90090E6BCE0F582120CD4E58260259034
:0E0EC700E6BCE0F582120CF3E0FA5302019053
:0E0ED500E740EAF090E741E4F090E68AF09002
:080EE300E68B7402F0020FFC23
:060EEB00120A3B020FFC9D
:060EF100120A3B020FFC97
:060EF700120A3B020FFC91
:0C0EFD0090E6B9E0FA24F45003020FF96B
:070F0900EA2A2A900F107381
:070F1000020FF9020F460277
:060F17000FC1020FA2024F
:060F1D000FF9020FF902BA
:060F23000FF9020FF902B4
:060F29000FF9020F340273
:050F2F000FF9020F3D67
:090F340090E6BAE0F530020FFC72
:090F3D0090E6BAE0F531020FFC68
:0D0F460090E6B8E0FA53021FBA00028005E1
:050F5300BA0247800A0C
:0A0F580090E6BAE0120A3B020FFC1B
:0D0F620090E6BAE0703090E6BCE0F5821237
:0D0F6F000CD4E582602390E6BCE0F5821210
:0E0F7C000CF3AA82AB83E0FC5304FE8A828B46
:0E0F8A0083ECF090E6BCE0F582120A4380642E
:050F9800120A3B805F1E
:050F9D00120A3B805A1E
:0E0FA20090E6B8E0FA53021FBA004F90E6BA8C
:070FB000E0FABA010280051E
:050FB700BA02028040B7
:050FBC00120A3B803B1E
:0E0FC10090E6BAE0FA702C90E6BCE0F58212E1
:0D0FCF000CD4E582601A90E6BCE0F58212B9
:0E0FDC000CF3AA82AB83E0FC4304018A828BF3
:050FEA0083ECF0800D16
:050FEF00120A3B80081E
:050FF400120A3B80031E
:030FF900120A3B9E
:080FFC0090E6A0E04480F02221
:0E10040020F71030F6118883A88220F507F639
:05101200A883758300B6
:0110170022B6
:03101800F280F76C
:02101B00F022C1
:05101D00AA82BA0300E5
:071022004005EA249C500187
:0110290022A4
:09102A00740F5AFBBB030280079E
:07103300740F5AFBBB0B45D3
:0A103A00A2AF9201C2AFEA2400F554
:0C10440082E43400F5837402F07B007439
:0C105000012AFCE43BFDEC2400F582EDDD
:0A105C003400F583E51CFCF074027B
:0C1066002AFAE43BFBEA2400F582EB349C
:0A10720000F583AA1B7B00EAF0A240
:03107C000192AF2F
:01107F00224E
:08108000E582FA2483500122ED
:06108800EA54036001229E
:0A108E00A2AF9202C2AFEA2400F5FF
:0C10980082E43401F5837402F07B0074E4
:0C10A400012AFCE43BFDEC2400F582ED89
:0A10B0003401F583E51CF074022AF8
:0B10BA00FAE43BFBEA2400F582EB3473
:0810C50001F583AA1BEAF0A269
:0410CD000292AF22BA
:0810D100E582FA24CB50012254
:0610D900EA54036001224D
:0A10DF00A2AF9203C2AFEA2480F52D
:0C10E90082E43400F5837402F07B007494
:0C10F500012AFCE43BFDEC2480F582EDB8
:0A1101003400F583E51CF074022AA7
:0B110B00FAE43BFBEA2480F582EB34A1
:0811160000F583AA1BEAF0A218
:04111E000392AF2267
:08112200C2E8C2EA751B00756A
:06112A001C017582431256
:04113000101D751BFE
:0311340080751CA7
:0C1137000075825312101D0090E650E479
:0E114300F00090E652E4F00090E654E4F00074
:0E11510090E656E4F00090E65174FFF0009036
:0E115F00E65374FFF00090E65574FFF0009028
:0E116D00E65774FFF00090E658E4F090E65963
:0E117B0074FFF090E65AE4F090E65B74FFF02B
:0E11890090E65CE4F090E65D74FFF090E65EA8
:0E119700E4F090E65F74FFF00090E660E4F094
:0D11A5000090E66174FFF090E662E4F090C7
:0E11B200E66374FFF090E665E4F090E6687482
:0A11C0000BF05391AFD2E8D2EA22FF
:0A11CA00AA82AB83C2AD8A1B8B1C06
:0E11D40075822B12101D75CB6375CAC075C8CD
:0411E20004D2AD2264
:0111E60022E6
:0211E700AA82DA
:0611E9001211E6DAFB2200
:0311EF0090FB5022
:0811F200A3E582458370F92298
:0411FA00AA82AB8397
:0811FE001211EF1ABAFF011BE8
:05120600EA4B70F42228
:03123F007581397D
:0A124200120A19E582600302123A55
:00000001FF
